:1000000012C02CC02BC02AC029C028C027C026C0BF
:1000100025C024C023C022C021C020C01FC01EC0D4
:100020001DC01CC01BC011241FBECFE5D4E0DEBF25
:10003000CDBF10E0A0E6B0E0E0E5F1E002C0059041
:100040000D92A036B107D9F710E0A0E6B0E001C0EC
:100050001D92A036B107E1F702D078C0D1CFAF92A0
:10006000BF92CF92DF92EF92FF920F931F938FEF89
:1000700081BB87E084BB60ECA62E29E130E059EF1C
:10008000B52E44EAC42EDD24D39490EBE92E89E901
:10009000F82E02E912E0B2E8A8EF70E864E050E957
:1000A00047E0A2BA80E197E2F9013197F1F70197B1
:1000B000D9F7B2BA80E197E2F9013197F1F70197E8
:1000C000D9F7C2BAD5BA80E197E2F9013197F1F7D1
:1000D0000197D9F7E2BA80E197E2F9013197F1F798
:1000E0000197D9F7F2BA80E197E2F9013197F1F778
:1000F0000197D9F702BB15BB80E197E2F90131976F
:10010000F1F70197D9F7B2BB80E197E2F901319796
:10011000F1F70197D9F7A2BB80E197E2F901319796
:10012000F1F70197D9F772BB65BB80E197E2F9015E
:100130003197F1F70197D9F752BB80E197E2F901C6
:100140003197F1F70197D9F745BBABCFF894FFCFC3
:00000001FF
