:1000000012C02CC02BC02AC029C028C027C026C0BF
:1000100025C024C023C022C021C020C01FC01EC0D4
:100020001DC01CC01BC011241FBECFE5D4E0DEBF25
:10003000CDBF10E0A0E6B0E0EEE0F2E002C0059037
:100040000D92A036B107D9F710E0A0E6B0E001C0EC
:100050001D92A036B107E1F798D0D7C0D1CF85E087
:1000600089B910BC8AB188618AB980B5866880BDBB
:1000700008955D9BFECF8CB908955F9BFECF8CB138
:10008000089588BBC09AC198C29A8AEF90E0019700
:10009000F1F7C298089588BBC098C198C29A8AEFB8
:1000A00090E00197F1F7C2980895282F207F28BB90
:1000B000C09AC198C29A2AEF30E0F9013197F1F75E
:1000C000C29890E044E0880F991F4A95E1F788BBF9
:1000D000C09AC198C29AC9010197F1F7C298C901A3
:1000E0000197F1F70895CF93DF93EC0101C0DDDFB5
:1000F00089918823E1F78AEF90E00197F1F7DF918A
:10010000CF910895282F207F28BBC098C198C29A0C
:100110002AEF30E0F9013197F1F7C29890E054E00E
:10012000880F991F5A95E1F788BBC098C198C29A69
:10013000C9010197F1F7C298C9010197F1F7089534
:10014000CF93DF93EC0184E0DDDF209771F480E34F
:10015000ACDF0BC0CE016AE070E043D0805DA5DF6C
:10016000CE016AE070E03DD0EB01209799F786E080
:10017000C9DFDF91CF91089582E0C4DF88E2C2DF5A
:1001800086E0C0DF8CE0BEDF0895EF92FF921F9300
:10019000CF93DF9385E089B910BC8AB188618AB9B1
:1001A00080B5866880BD8FE084BB8FEF87BBE4DFBE
:1001B0006AEFE62EF12CC4ECD9E05F9BFECF1CB1B8
:1001C0005D9BFECF1CB981E09DDFC7010197F1F770
:1001D0008FE898DF812F90E0B3DFCE010197F1F730
:1001E000ECCFAA1BBB1B51E107C0AA1FBB1FA61760
:1001F000B70710F0A61BB70B881F991F5A95A9F7D0
:0E02000080959095BC01CD010895F894FFCF34
:00000001FF
